:1000000012C069C029C028C027C026C025C024C08E
:1000100023C022C021C020C01FC01EC01DC01CC0E4
:100020001BC01AC019C011241FBECFEDCDBF10E0F8
:10003000A0E6B0E0E4E2F2E002C005900D92A8363E
:10004000B107D9F710E0A8E6B0E001C01D92AD36C7
:10005000B107E1F778D0E4C0D3CF20916600220F3A
:10006000220F20936600B19B03C02160209366009D
:10007000B09B05C02091660022602093660020910D
:1000800066002F702093660030916A00332329F0B8
:100090002F30F9F410926A001CC02E3061F42091C8
:1000A000640030916500821B930B6817790788F410
:1000B000620F731F0BC02D3061F48091640090912A
:1000C00065008617970728F4681B790B81E08093F9
:1000D0006A00CB0108951F920F920FB60F92112460
:1000E0002F933F934F935F936F937F938F939F9340
:1000F000AF93BF93EF93FF9381E08093690012D099
:1001000011D0FF91EF91BF91AF919F918F917F910E
:100110006F915F914F913F912F910F900FBE0F9074
:100120001F9018952FEA32E80000000000003150BF
:100130003030D1F721502030B1F74CE00000415071
:100140004030E9F70895BB9A8B9A8A9880916200B3
:10015000909163006AE070E04FD070936C00609300
:100160006B00809160009091610095BD84BD7BBD66
:100170006ABD8FB580688FBD8FB582608FBD8EB52B
:1001800088608EBD8EB580618EBD8EB581608EBD5E
:1001900085B7816085BF85B7826085BF8BB7806476
:1001A0008BBF7894C8E080916900882361F081E07A
:1001B00090916800911180E080936800109269002E
:1001C00082B38C2782BB80916800811104C01BBC64
:1001D0001ABCBB98E8CF60916B0070916C00809165
:1001E00062009091630039DF90936C0080936B0004
:1001F0009BBD8ABDBB9AD7CFAA1BBB1B51E107C0D1
:10020000AA1FBB1FA617B70710F0A61BB70B881FA6
:10021000991F5A95A9F780959095BC01CD01089535
:04022000F894FFCF80
:08022400640066000100030004
:00000001FF
