:1000000012C079C029C028C027C026C025C024C07E
:1000100023C022C021C020C01FC01EC01DC01CC0E4
:100020001BC01AC019C011241FBECFEDCDBF10E0F8
:10003000A0E6B0E0ECEFF1E002C005900D92AE3624
:10004000B107D9F710E0AEE6B0E001C01D92A137CC
:10005000B107E1F787D0D0C0D3CF20916A00220F3B
:10006000220F20936A00B19B03C0216020936A0095
:10007000B09B05C020916A00226020936A00209105
:100080006A002F7020936A0030917000332331F0A2
:100090002F3009F02BC01092700028C02E3081F450
:1000A00020916B0030916C00409168005091690084
:1000B000841B950B28173907C8F4240F351F0FC070
:1000C0002D30A1F420916B0030916C00809168007C
:1000D000909169008217930748F4281B390B3093DD
:1000E0006C0020936B0081E08093700080916B0026
:1000F00090916C0008951F920F920FB60F921124E9
:100100002F933F934F935F936F937F938F939F931F
:10011000AF93BF93EF93FF9381E080936F0011D073
:10012000FF91EF91BF91AF919F918F917F916F91CF
:100130005F914F913F912F910F900FBE0F901F90A5
:1001400018952FEA32E800000000000031503030EE
:10015000D1F721502030B1F74CE000004150403041
:10016000E9F70895BB9A8B9A8A98809162009091E2
:10017000630095BD84BD84B595B5969587959BBD67
:100180008ABD8FB580688FBD8FB582608FBD8EB5FB
:1001900088608EBD8EB580618EBD8EB581608EBD4E
:1001A00085B7816085BF85B7826085BF8BB7806466
:1001B0008BBF7894C8E080916F00882361F081E064
:1001C00090916E00911180E080936E0010926F000C
:1001D00082B38C2782BB80916E00811104C01BBC4E
:1001E0001ABCBB98E8CF809164009091650035DF20
:0C01F0009BBD8ABDBB9ADFCFF894FFCF07
:0E01FC005802C800C800640002000332000070
:00000001FF
