:1000000012C02AC029C028C027C026C025C024C0CD
:1000100023C022C021C020C01FC01EC01DC01CC0E4
:100020001BC01AC019C011241FBECFEDCDBF10E0F8
:10003000A0E6B0E0EAE8F1E002C005900D92AE362D
:10004000B107D9F710E0AEE6B0E001C01D92A037CD
:10005000B107E1F76BD097C0D3CF859B06C055D0D1
:1000600080B385FB882780F9089580E0089520916A
:100070006A00220F220F20936A00B19B03C0216007
:1000800020936A00B09B05C020916A0022602093F3
:100090006A0020916A002F7020936A0030916F00EF
:1000A000332331F02F3009F02BC010926F0028C09D
:1000B0002E3081F420916B0030916C0040916800EB
:1000C00050916900841B950B28173907C8F4240F39
:1000D000351F0FC02D30A1F420916B0030916C00C2
:1000E00080916800909169008217930748F4281B5B
:1000F000390B30936C0020936B0081E080936F008C
:1001000080916B0090916C0008952FEA32E8000016
:100110000000000031503030D1F721502030B1F7CD
:100120004CE0000041504030E9F70895BB9A8D98AB
:10013000959A809162009091630095BD84BD84B5CD
:1001400095B5969587959BBD8ABD8FB580688FBD07
:100150008FB582608FBD8EB588608EBD8EB5806193
:100160008EBD8EB581608EBD789480916200909135
:10017000630095BD84BD809164009091650077DF38
:0A0180009BBD8ABDF2CFF894FFCFBB
:0E018A005802C800C8006400020003320000E2
:00000001FF
