S00F0000656E636F6465722E7372656335
S113000012C069C029C028C027C026C025C024C08A
S113001023C022C021C020C01FC01EC01DC01CC0E0
S11300201BC01AC019C011241FBECFEDCDBF10E0F4
S1130030A0E6B0E0E4E2F2E002C005900D92AA3638
S1130040B107D9F710E0AAE6B0E001C01D92AF36BF
S1130050B107E1F778D0E4C0D3CF20916800220F34
S1130060220F20936800B19B03C021602093680095
S1130070B09B05C020916800226020936800209105
S113008068002F702093680030916C00332329F0AE
S11300902F30F9F410926C001CC02E3061F42091C2
S11300A0660030916700821B930B6817790788F408
S11300B0620F731F0BC02D3061F480916600909124
S11300C067008617970728F4681B790B81E08093F3
S11300D06C00CB0108951F920F920FB60F9211245A
S11300E02F933F934F935F936F937F938F939F933C
S11300F0AF93BF93EF93FF9381E080936B0012D093
S113010011D0FF91EF91BF91AF919F918F917F910A
S11301106F915F914F913F912F910F900FBE0F9070
S11301201F9018952FEA32E80000000000003150BB
S11301303030D1F721502030B1F74CE0000041506D
S11301404030E9F70895BB9A8B9A8A9880916400AD
S1130150909165006AE070E04FD070936E006093F8
S11301606D00809162009091630095BD84BD7BBD5C
S11301706ABD8FB580688FBD8FB582608FBD8EB527
S113018088608EBD8EB580618EBD8EB581608EBD5A
S113019085B7816085BF85B7826085BF8BB7806472
S11301A08BBF7894C8E080916B00882361F081E074
S11301B090916A00911180E080936A0010926B0024
S11301C082B38C2782BB80916A00811104C01BBC5E
S11301D01ABCBB98E8CF60916D0070916E0080915D
S11301E064009091650039DF90936E0080936D00F8
S11301F09BBD8ABDBB9AD7CFAA1BBB1B51E107C0CD
S1130200AA1FBB1FA617B70710F0A61BB70B881FA2
S1130210991F5A95A9F780959095BC01CD01089531
S1070220F894FFCF7C
S10D0224C800640066000100030036
S9030000FC
